:020000040800F2
:100000003006002045010008490100084B010008A6
:100010004D0100084F0100085101000800000000D8
:100020000000000000000000000000005301000874
:1000300055010008000000005701000859010008A0
:100040005B0100085B0100085B0100085B01000820
:100050005B0100085B0100085B0100085B01000810
:100060005B0100085B0100085B0100085B01000800
:100070005B0100085B0100085B0100085B010008F0
:100080005B0100085B0100085B0100085B010008E0
:100090005B0100085B0100085B0100085B010008D0
:1000A0005B0100085B0100085B0100085B010008C0
:1000B0005B0100085B010008010600085B01000805
:1000C0005B0100085B0100085B0100085B010008A0
:1000D0005B0100085B010008150700085B010008D0
:1000E0005B0100085B0100085B0100085B01000880
:1000F0005B0100085B0100085B0100085B01000870
:100100005B0100085B0100085B0100085B0100085F
:100110005B0100085B0100085B0100085B0100084F
:100120005B0100085B0100085B0100085B0100083F
:10013000DFF80CD000F044F900480047F111000846
:100140003006002005480047FEE7FEE7FEE7FEE731
:10015000FEE7FEE7FEE7FEE7FEE7FEE73101000807
:1001600040EA01039B0703D009E008C9121F08C039
:10017000042AFAD203E011F8013B00F8013B521EB9
:10018000F9D27047F0B480EA0102D40F4200B2EB1A
:10019000410F02D20246084611464A0042D0C30D22
:1001A000DDB2C1F3C752AD1A202D35DAC1F3160105
:1001B00041F4000204B15242C5F1200602FA06F1F0
:1001C0002A411044B3EBD05F23D0C4B1012DA0EB82
:1001D000C35009DCF0BC4FF0004202EAC35200F504
:1001E0000000DBB200F0BEB8400000F1807000EB10
:1001F000C350A0F1807040EAD170490009E049087D
:1002000041EAC071A0EBC35000F50000400800EBCC
:10021000C350F0BC00F09DB86142012202EB4101E5
:10022000001BF6E7F0BC704781F00041AAE780F0C0
:100230000040A7E780EA010210B502F00043400049
:1002400026D04A0023D04FEA106101EB1261C0F3BF
:100250005600C2F3560240F4000042F40002A0FB34
:100260000220A1F17F014FEA0040140401D000F107
:10027000010050EA124001D44000491EC2B20C06EF
:1002800004EBD010401C4008802A02D003E000207C
:1002900010BD20F00100002900DA0020184310BD35
:1002A00030B480EA010202F0004530F0004221F053
:1002B000004015D0A0B1C0F3C753C2F3C754C2F376
:1002C0001601C0F31600E41A41F4000140F40002E4
:1002D0007D34914201D3641C00E04900002C02DA15
:1002E00030BC002070474FF400000023914201D33E
:1002F000891A034340084FEA4101F7D151B19142B5
:1003000002D14FF0004105E002D24FF0010101E0BF
:100310006FF0010103EBC450284430BC00F019B861
:1003200096230022114600F01DB820F00040C10DB8
:10033000C0F3160040F400007F2901DA0020704766
:10034000962903DCC1F19601C84070479639884070
:1003500070470029A8BF7047401C490008BF20F023
:100360000100704710B4B0FA80FC00FA0CF050EABB
:10037000010404BF10BC704749B1CCF1200421FA3C
:1003800004F411FA0CF118BF012121430843A3EB37
:100390000C01CB1D0106000A002BBEBF002010BCC3
:1003A000704700EBC35010440029A4BF10BC704735
:1003B000401C490008BF20F0010010BC704700003D
:1003C000064C074D06E0E06840F0010394E80700A2
:1003D00098471034AC42F6D3FFF7AEFEC0180008C1
:1003E000E01800081848806940F004001649886148
:1003F0000846806940F0200088611448006820F0B9
:100400000F00124908600846006840F003000860C9
:100410000E480830006840F480700C4908310860CC
:100420000B48006820F470600949086008460068BD
:1004300040F44070086006480C30006840F004004A
:1004400003490C3108607047001002400408014065
:100450000014014000B5002015490861C86014204F
:10046000486100208861C8610846006840F00100CA
:100470000860084640680F4908400D494860084632
:1004800000680D4908400A4908600846006820F4E1
:10049000802008600846406820F4FE004860002084
:1004A000886000214FF0006000F05AF800BD0000A5
:1004B000001002400000FFF8FFFFF6FE2DE9F041BA
:1004C0000746884614461D46284600F035F8C5F113
:1004D000040007FA00F60F20284100EA080006434E
:1004E00006F00F06E21704EBD26252114FF0E02340
:1004F00003EB8202D2F800212146E31704EBD36319
:100500005B11A4EB431C012303FA0CF31A432046AE
:10051000E31704EBD3635B114FF0E02C0CEB830388
:10052000C3F800210348005D40EA06100149085560
:10053000BDE8F08100E400E00146072323EA010260
:100540001202054B18684FF6FF031840034B18437F
:100550001043014B186070470CED00E00000FA05F5
:10056000024A0A400243024B1A60704780FFFF1F95
:1005700008ED00E030B504460025FFF76BFF1E488C
:10058000006840F480301C49086000BF1A480068C9
:10059000400CFBD04FF4806017494860A01EC4B2E5
:1005A0000846406840EA844048600846406840F495
:1005B000803048601148006840F032000F49086000
:1005C0000D48006840F080700B49086000BF0A4881
:1005D0000068400EFBD00848406840F00200064921
:1005E000486005E004484068C0F3870505F003054E
:1005F000022DF7D130BD0000001002400020024063
:1006000010B50748008810F0010F07D000F034F84B
:100610000348008820F001000149088010BD000057
:100620001008004070B504460D461148C06940F0FE
:1006300004000F49C8610F480480681E0D49091F56
:1006400008800C482038008840F001000949203912
:10065000088008482C38008820F0010005492C3912
:10066000088002231E2203210120FFF727FF70BD0F
:10067000001002402C08004010B502480068804776
:1006800010BD0000B800002000200C4908800B4875
:100690001438008820F00100084914390880081F28
:1006A000008820F00100091F0880044824380088D1
:1006B00020F00100014924390880704724080040D7
:1006C0001348008820F001001149088000201049DB
:1006D0002431088032200E492C31088041F61F4019
:1006E000091F08800A481030008820F001000849DE
:1006F00010310880081F008840F00100091F0880A1
:100700000348008840F0010001490880704700005C
:100710000008004010B50B48008810F0200F01D0F1
:1007200000F0AEFD0748008810F0080F01D000F07F
:10073000A7FD0448008810F0800F01D000F0A8FD4C
:1007400010BD000000440040014A024900F013B807
:10075000D51100080800002002E008C8121F08C1D7
:10076000002AFAD170477047002001E001C1121F32
:10077000002AFBD170472DE9F04116460F4604468A
:10078000002503E03946B0476D1C641C2078002822
:10079000F8D12846BDE8F0814FF0E021096921F049
:1007A00004014FF0E0221161C21700EB5272D21027
:1007B000074B1A701946097801EB4102C2EBC111CF
:1007C0004FF6FF7202EAC101024A11807047000031
:1007D0000400002006000020002107E042F2107112
:1007E00000E0491E0029FCDC421E90B20028F5DC26
:1007F0007047000010B5002406480078012806D193
:1008000005480068804700200249087000E006247F
:10081000204610BD0C000020A00000202DE9F05F54
:1008200006460D464FF0000B2888052848D1707801
:100830004FEA0029B07840EA090909F101001FFADE
:1008400080F9F078040230790443012C35DBB4F5EB
:10085000FA6F32DA374600202880012007F8010BB2
:100860002888401C288014F0070F08D02046E11784
:1008700004EB5171C910491C01F0FF0805E0204646
:10088000E11704EB5171C1F3C70807F8018B288801
:10089000401C2880002322464946384600F0F6FBDB
:1008A0008246BAF1000F04D0504600F0D7FC8346D0
:1008B00008E028884044288004E04FF0030B01E062
:1008C0004FF0030B5846BDE8F09F2DE9F05F064658
:1008D0000D464FF0000B2888052847D170784FEA65
:1008E0000029B07840EA090909F101001FFA80F9EE
:1008F000F078040230790443012C34DBB4F5FA6F4C
:1009000031DA374600202880022007F8010B2888BA
:10091000401C288014F0070F08D02046E11704EB94
:100920005171C910491C01F0FF0805E02046E1178C
:1009300004EB5171C1F3C70807F8018B2888401CEC
:10094000288022464946384600F0DEFB8246BAF14E
:10095000000F04D0504600F081FC834608E0288850
:100960004044288004E04FF0030B01E04FF0030BFC
:100970005846BDE8F09F2DE9F04705460C464FF07C
:10098000000A2088052837D168784FEA0028A8781F
:1009900040EA080808F101001FFA80F8E87806022A
:1009A0002E79012E25DB7D2E23DC2F460020208092
:1009B000032007F8010B2088401C20807006000EE1
:1009C00007F8010B2088401C208000233246414656
:1009D000384600F09DFB8146B9F1000F04D048462F
:1009E00000F03CFC824609E0208800EB46002080B5
:1009F00004E04FF0030A01E04FF0030A5046BDE85F
:100A0000F0872DE9F04705460C464FF0000A208894
:100A1000052837D168784FEA0028A87840EA080806
:100A200008F101001FFA80F8E878060228790643E9
:100A3000012E24DB7D2E22DA2F4600202080042088
:100A400007F8010B2088401C20807006000E07F874
:100A5000010B2088401C208032464146384600F079
:100A600095FB8146B9F1000F04D0484600F0F6FB33
:100A7000824609E0208800EB4600208004E04FF029
:100A8000030A01E04FF0030A5046BDE8F0872DE964
:100A9000FC5F04460D460020009028880A285DDB94
:100AA00060784FEA002AA07840EA0A0A0AF10100B9
:100AB0001FFA80FAE07806022079064360794FEA4F
:100AC000002BA07940EA0B0B0BF101001FFA80FB11
:100AD000E0790702207A0743607A0190012E3BDB20
:100AE0007D2E39DC012F37DB792F35DC7900019839
:100AF000814231D101233A46594604F10A0000F0FF
:100B000007FB8146B9F1000F1ED1A04600202880C6
:100B1000172008F8010B2888401C28807006000E5A
:100B200008F8010B2888401C2880002332465146D3
:100B3000404600F0EDFA8146B9F1000F04D1288853
:100B4000022101FB06002880B9F1000F06D04846BB
:100B500000F084FB009001E0032000900098BDE8C5
:100B6000FC9F000070B505460C4606480288064901
:100B7000681CFFF7F5FA03480088401C208000201D
:100B800070BD0000D0000020100200202DE9F843C5
:100B900004460F464FF000083888052829D16078B0
:100BA0000502A0780543681C85B22079F0B9E07889
:100BB000FF2801D0E078C8B900208DF80100E07866
:100BC000FF2803D101208DF8000002E000208DF8FD
:100BD000000001231A462946684600F057FA0646E7
:100BE0004EB1304600F03AFB804604E04FF0030877
:100BF00001E04FF003084046BDE8F8832DE9F041DD
:100C000004460F464FF000083888052812D1607856
:100C10000502A0780543681C85B201231A462946BF
:100C2000E01C00F075FA064636B1304600F016FBBF
:100C3000804601E04FF003084046BDE8F0812DE911
:100C4000F05F05460E464FF0000B3088052839DD71
:100C500068780702A8780743781C87B2E87804020E
:100C60002879044395F805A014F0070F08D0204612
:100C7000E11704EB5171C910491C01F0FF0805E0B0
:100C80002046E11704EB5171C1F3C708012C16DBB4
:100C9000B4F5F66F13DCD04511D101232246394655
:100CA000A81D00F0F3F98146B9F1000F04D04846C1
:100CB00000F0D4FA834607E00520308004E04FF0CE
:100CC000030B01E04FF0030B5846BDE8F09F2DE900
:100CD000F04704460E464FF0000A3088062828DB0D
:100CE00060780702A0780743781C87B2E078050295
:100CF0002079054394F80590012D17DB782D15DC3C
:100D00006806000E484511D101232A463946A01D28
:100D100000F0FEF98046B8F1000F04D0404600F024
:100D20009DFA824607E00520308004E04FF0030A78
:100D300001E04FF0030A5046BDE8F0872DE9F04787
:100D400005460C4616461F46DDF820904FF0000879
:100D50001CB1012C01DBF72C02DD4FF0020833E05F
:100D60001B48047005BB1B481B4908601B481C49F5
:100D700008601C481C4908601C481D490860002088
:100D80001C4908601C481D4908601D481D49086031
:100D90001D481E4908604B463A4631460C480078CB
:100DA00000F0CEF8804602E04FF0020800BF00BF1E
:100DB000B8F1000F08D100F09BFB10B94FF0030809
:100DC00002E00120124908704046BDE8F0870000AB
:100DD0009900002061100008A00000207D1000088C
:100DE000A4000020D90F00089C000020910F0008EB
:100DF000A8000020AC00002075150008B0000020FD
:100E000055160008B4000020FD150008B8000020A9
:100E10000C00002038B500253F48007808B10620B6
:100E200038BD684600F052FB012872D19DF80000E1
:100E300030B1012805D0022818D0032868D166E017
:100E400066E0364A36493748374B1B6898470546AF
:100E50005DB93448007835490978884202D0314874
:100E6000007810B9022000F04BFB51E02C480068DC
:100E700000782F49087001202E490870002417E0DF
:100E80002D4810F8340000B914E02B4810F8340055
:100E90002749097888420AD1274800EBC4001F4936
:100EA00042681F48006890472249087002E0641CAD
:100EB000102CE5DB00BF1B48007830B31D480078DC
:100EC000C8B10020154908801948007840F0800119
:100ED000124802880088401C104B18801048006897
:100EE000815414480178184602880088401C1880F4
:100EF0000B480068815409480288094801680B487A
:100F000000780E4B1B689847054601E001E000BFE2
:100F100000BF002084E700000C00002096000020A5
:100F20009000002094000020A800002099000020DC
:100F30009500002098000020100000209C00002058
:100F40002DE9F04781460E4614461F464FF0000833
:100F50003B4608222146304600F0E6FA012802D03E
:100F60004FF003080FE0B4F5964F01D9232503E0B5
:100F700060000649B1FBF0F5A8B200F0F1FA0128D3
:100F800001D04FF003084046BDE8F087A07F17006E
:100F90002DE9F04104460D46164600270C4800880E
:100FA000042810DB0A4801880A4800F049FA50B9C1
:100FB00008480078207006480088C01E3080054828
:100FC000401C286000E005273846BDE8F08100009D
:100FD000CE000020100100202DE9F04105460E460C
:100FE00017464FF0000819480078012829D1701ED3
:100FF00017490860012017490880154800680570E6
:10100000084600883844088008460188104800686F
:1010100000F016FA04460F490888411C0D4B198050
:101020000D490C54221219460888411C19800A499E
:101030000A540120094908700121002000F01CFA1F
:1010400001E04FF005084046BDE8F081C5000020F2
:10105000C8000020CC00002010010020C4000020A7
:1010600010B50020044908700021012000F004FAA6
:1010700000F028FA10BD0000C500002010B50021C6
:10108000084600F0F9F900F019FA10BDF0B5044671
:101090000D460020012D31DBAE180B2E2EDC184E34
:1010A0003688A91B13B1012B27D111E00DE0154E95
:1010B00036F81160361204F8016B124E16F8116002
:1010C00004F8016B491C561EB2B2002AEFDC14E092
:1010D00010E014F8017B3E020A4F27F8116014F863
:1010E000016B37F811703E43064F27F81160491C19
:1010F000561EB2B2002AECDC00BF00E00120F0BDB9
:1011000002000020FC000020034601207047000080
:10111000F0B504460D460020012D31DBAE180B2E34
:101120002EDC184E3688A91B13B1012B27D111E0F4
:101130000DE0154E36F81160361204F8016B124EB0
:1011400016F8116004F8016B491C561EB2B2002A51
:10115000EFDC14E010E014F8017B3E020A4F27F8A0
:10116000116014F8016B37F811703E43064F27F8F1
:101170001160491C561EB2B2002AECDC00BF00E030
:101180000120F0BD02000020FC00002030B5034625
:101190000020012917DB8D18152D14DC0B4D2D882F
:1011A0004C1B0DE00A4D35F814502D1203F8015B6D
:1011B000074D15F8145003F8015B641C551EAAB2C4
:1011C000002AEFDC00E0012030BD0000000000201C
:1011D000D400002000BF054A128812F0400FFAD058
:1011E000C2B2024B1B1D1A8070470000003801403C
:1011F00008B50920FFF7BEF94820FFF7CDFA4FF4F4
:101200001651482000F0BAF8FFF7ECF80EA0FFF7EF
:101210009BFA00204FF41653024602210090FFF77C
:101220008DFDFFF7E7FA0DE00B48006808B90120D3
:1012300000E0002008490860FFF7ECFD4FF47A70E9
:10124000FFF7CAFAF0E700007561727420746573E5
:10125000743A0D0A00000000A0012142014621B1AC
:10126000012904D0072906D103E0002005E002206F
:1012700003E0062001E0042000BF00BF704700002B
:1012800010B502480068804710BD0000B000002083
:1012900010B502480068804710BD0000B40000206F
:1012A0002DE9F05F05460E463001FFF739F881461B
:1012B0002E4905FB01F0FFF733F882464946FEF759
:1012C000EFFF07463846FFF730F884B22046FFF7B5
:1012D00027F883463946FEF7AAFF82464FF083413E
:1012E000FEF7A8FF8146FFF720F880464FF6FF7013
:1012F00000EA041404EB080084B21D48806940F041
:1013000004001B4988610846C06940F40030C86188
:101310001848006820F47F401649086008460068B5
:1013200040F40B4008601248006940F40030104956
:1013300008610846006920F4003008610E48048006
:10134000001D008842F20C0108430B49091D08806A
:101350000846008840F0200008800223262203214E
:101360000846FFF7ABF8BDE8F09F000040420F00D1
:101370000010024000080140084400402DE9F05FE1
:1013800005460E463001FEF7CBFF8146284905FB96
:1013900001F0FEF7C5FF82464946FEF781FF07468A
:1013A0003846FEF7C2FF84B22046FEF7B9FF8346F7
:1013B0003946FEF73CFF82464FF08341FEF73AFF85
:1013C0008146FEF7B2FF80464FF6FF7000EA041434
:1013D00004EB080084B21748806940F00400154906
:1013E00088610846806940F480408861124800683E
:1013F00020F47F60104908600846006840F40B60E4
:1014000008600C48C06840F480400A49C86008463B
:10141000C06820F48040C86008480480001D00882F
:1014200042F20C0108430549091D0880BDE8F09F00
:1014300040420F00001002400408014008380140FB
:1014400070B502460C46FF25FF2309E012F8010B98
:1014500080EA03010648405C80EA05030548455CD4
:101460002000A4F10106B4B2F0D143EA052070BD1A
:10147000C0160008C0170008012806D10E4A1288BD
:1014800042F020020C4B1A8005E00B4A128822F031
:101490002002094B1A80012906D1074A128842F01E
:1014A0008002054B1A8005E0034A128822F0800270
:1014B000014B1A80704700000C44004000B5FFF754
:1014C000E3F800BD00B5FFF7FBF800BD01460020C2
:1014D000054A127832B1054A12780A700022024B8E
:1014E0001A70012070470000D3000020D2000020B5
:1014F000002002490870012070470000D30000203E
:1015000001460120024A1070024801700120704714
:10151000D3000020D2000020014602480088087055
:1015200001207047044400402DE9F04105460C4677
:1015300016461F4621462420FFF7B2FE0120BDE8D3
:10154000F0810000014600BF0448008810F0400F01
:10155000FAD00248001D018001207047004400407D
:1015600010B5044641F61F413220FFF75BF8012019
:1015700010BD000038B500246846FFF7CDFF1C48B9
:10158000007830B101280AD0022819D003282BD1C5
:1015900002E0FFF797FF27E0FFF794FF24E0002029
:1015A000144908809DF800200888411C114B1980BF
:1015B00011490A5402200E490870FFF783FF13E017
:1015C0000C480088FF2809DC9DF80020094908889C
:1015D000411C084B198008490A5402E003200449C1
:1015E0000870FFF76FFF00BF00BF204638BD000046
:1015F000C5000020CE0000201001002010B50024FE
:101600000F48007820B1022807D003280ED10CE043
:101610000020FFF775FF044609E00120FFF770FF87
:10162000044608A0FFF790F801E000E000BF00BF0B
:10163000FFF744FF012002490870204610BD00005A
:10164000C5000020706F7374206672615F726376EC
:10165000640D0A0010B500241648007810B1012866
:1016600024D104E000210120FFF706FF1EE012480C
:10167000008878B1114909680878FFF763FF0F48BF
:101680000068401C0D4908600B480088401E0A494C
:1016900008800AE00320FFF733FF04460021012001
:1016A000FFF7EAFE00200349087000BF00BF204694
:1016B00010BD0000C4000020CC000020C8000020A5
:1016C00000C1814001C0804101C0804100C1814012
:1016D00001C0804100C1814000C1814001C0804102
:1016E00001C0804100C1814000C1814001C08041F2
:1016F00000C1814001C0804101C0804100C18140E2
:1017000001C0804100C1814000C1814001C08041D1
:1017100000C1814001C0804101C0804100C18140C1
:1017200000C1814001C0804101C0804100C18140B1
:1017300001C0804100C1814000C1814001C08041A1
:1017400001C0804100C1814000C1814001C0804191
:1017500000C1814001C0804101C0804100C1814081
:1017600000C1814001C0804101C0804100C1814071
:1017700001C0804100C1814000C1814001C0804161
:1017800000C1814001C0804101C0804100C1814051
:1017900001C0804100C1814000C1814001C0804141
:1017A00001C0804100C1814000C1814001C0804131
:1017B00000C1814001C0804101C0804100C1814021
:1017C00000C0C101C30302C2C60607C705C5C404E1
:1017D000CC0C0DCD0FCFCE0E0ACACB0BC90908C851
:1017E000D81819D91BDBDA1A1EDEDF1FDD1D1CDC41
:1017F00014D4D515D71716D6D21213D311D1D010B1
:10180000F03031F133F3F23236F6F737F53534F4A0
:101810003CFCFD3DFF3F3EFEFA3A3BFB39F9F83810
:1018200028E8E929EB2B2AEAEE2E2FEF2DEDEC2C00
:10183000E42425E527E7E62622E2E323E12120E070
:10184000A06061A163A3A26266A6A767A56564A460
:101850006CACAD6DAF6F6EAEAA6A6BAB69A9A868D0
:1018600078B8B979BB7B7ABABE7E7FBF7DBDBC7CC0
:10187000B47475B577B7B67672B2B373B17170B030
:101880005090915193535292965657975595945420
:101890009C5C5D9D5F9F9E5E5A9A9B5B9959589890
:1018A000884849894B8B8A4A4E8E8F4F8D4D4C8C80
:1018B00044848545874746868242438341818040F0
:1018C000E018000800000020D400000058070008BD
:1018D000B4190008D40000205C0500006807000867
:1018E00001000100000000000000000002000000F4
:1018F00011000000650B000804000000030A000846
:10190000030000007709000810000000CF0C000859
:1019100006000000FD0B0008170000008F0A0008F9
:10192000010000001D080008050000008D0B0008E4
:101930000F0000003F0C000802000000CB08000868
:101940000000000000000000000000000000000097
:101950000000000000000000000000000000000087
:101960000000000000000000000000000000000077
:101970000000000000000000000000000000000067
:101980000000000000000000000000000000000057
:101990000000000000000000000000000000000047
:1019A0000000000000000000000000000000000037
:0419B0000000000033
:0400000508000131BD
:00000001FF
